{
  "contractName": "SelfieTokenizer",
  "abi": [
    {
      "constant": true,
      "inputs": [
        {
          "name": "interfaceId",
          "type": "bytes4"
        }
      ],
      "name": "supportsInterface",
      "outputs": [
        {
          "name": "",
          "type": "bool"
        }
      ],
      "payable": false,
      "stateMutability": "view",
      "type": "function"
    },
    {
      "constant": true,
      "inputs": [],
      "name": "name",
      "outputs": [
        {
          "name": "",
          "type": "string"
        }
      ],
      "payable": false,
      "stateMutability": "view",
      "type": "function"
    },
    {
      "constant": true,
      "inputs": [
        {
          "name": "tokenId",
          "type": "uint256"
        }
      ],
      "name": "getApproved",
      "outputs": [
        {
          "name": "",
          "type": "address"
        }
      ],
      "payable": false,
      "stateMutability": "view",
      "type": "function"
    },
    {
      "constant": false,
      "inputs": [
        {
          "name": "to",
          "type": "address"
        },
        {
          "name": "tokenId",
          "type": "uint256"
        }
      ],
      "name": "approve",
      "outputs": [],
      "payable": false,
      "stateMutability": "nonpayable",
      "type": "function"
    },
    {
      "constant": true,
      "inputs": [],
      "name": "totalSupply",
      "outputs": [
        {
          "name": "",
          "type": "uint256"
        }
      ],
      "payable": false,
      "stateMutability": "view",
      "type": "function"
    },
    {
      "constant": false,
      "inputs": [
        {
          "name": "from",
          "type": "address"
        },
        {
          "name": "to",
          "type": "address"
        },
        {
          "name": "tokenId",
          "type": "uint256"
        }
      ],
      "name": "transferFrom",
      "outputs": [],
      "payable": false,
      "stateMutability": "nonpayable",
      "type": "function"
    },
    {
      "constant": true,
      "inputs": [
        {
          "name": "owner",
          "type": "address"
        },
        {
          "name": "index",
          "type": "uint256"
        }
      ],
      "name": "tokenOfOwnerByIndex",
      "outputs": [
        {
          "name": "",
          "type": "uint256"
        }
      ],
      "payable": false,
      "stateMutability": "view",
      "type": "function"
    },
    {
      "constant": false,
      "inputs": [
        {
          "name": "from",
          "type": "address"
        },
        {
          "name": "to",
          "type": "address"
        },
        {
          "name": "tokenId",
          "type": "uint256"
        }
      ],
      "name": "safeTransferFrom",
      "outputs": [],
      "payable": false,
      "stateMutability": "nonpayable",
      "type": "function"
    },
    {
      "constant": true,
      "inputs": [
        {
          "name": "index",
          "type": "uint256"
        }
      ],
      "name": "tokenByIndex",
      "outputs": [
        {
          "name": "",
          "type": "uint256"
        }
      ],
      "payable": false,
      "stateMutability": "view",
      "type": "function"
    },
    {
      "constant": true,
      "inputs": [
        {
          "name": "tokenId",
          "type": "uint256"
        }
      ],
      "name": "ownerOf",
      "outputs": [
        {
          "name": "",
          "type": "address"
        }
      ],
      "payable": false,
      "stateMutability": "view",
      "type": "function"
    },
    {
      "constant": true,
      "inputs": [
        {
          "name": "owner",
          "type": "address"
        }
      ],
      "name": "balanceOf",
      "outputs": [
        {
          "name": "",
          "type": "uint256"
        }
      ],
      "payable": false,
      "stateMutability": "view",
      "type": "function"
    },
    {
      "constant": false,
      "inputs": [],
      "name": "renounceOwnership",
      "outputs": [],
      "payable": false,
      "stateMutability": "nonpayable",
      "type": "function"
    },
    {
      "constant": true,
      "inputs": [],
      "name": "owner",
      "outputs": [
        {
          "name": "",
          "type": "address"
        }
      ],
      "payable": false,
      "stateMutability": "view",
      "type": "function"
    },
    {
      "constant": true,
      "inputs": [],
      "name": "isOwner",
      "outputs": [
        {
          "name": "",
          "type": "bool"
        }
      ],
      "payable": false,
      "stateMutability": "view",
      "type": "function"
    },
    {
      "constant": true,
      "inputs": [],
      "name": "symbol",
      "outputs": [
        {
          "name": "",
          "type": "string"
        }
      ],
      "payable": false,
      "stateMutability": "view",
      "type": "function"
    },
    {
      "constant": false,
      "inputs": [
        {
          "name": "to",
          "type": "address"
        },
        {
          "name": "approved",
          "type": "bool"
        }
      ],
      "name": "setApprovalForAll",
      "outputs": [],
      "payable": false,
      "stateMutability": "nonpayable",
      "type": "function"
    },
    {
      "constant": false,
      "inputs": [
        {
          "name": "from",
          "type": "address"
        },
        {
          "name": "to",
          "type": "address"
        },
        {
          "name": "tokenId",
          "type": "uint256"
        },
        {
          "name": "_data",
          "type": "bytes"
        }
      ],
      "name": "safeTransferFrom",
      "outputs": [],
      "payable": false,
      "stateMutability": "nonpayable",
      "type": "function"
    },
    {
      "constant": true,
      "inputs": [
        {
          "name": "tokenId",
          "type": "uint256"
        }
      ],
      "name": "tokenURI",
      "outputs": [
        {
          "name": "",
          "type": "string"
        }
      ],
      "payable": false,
      "stateMutability": "view",
      "type": "function"
    },
    {
      "constant": true,
      "inputs": [
        {
          "name": "owner",
          "type": "address"
        },
        {
          "name": "operator",
          "type": "address"
        }
      ],
      "name": "isApprovedForAll",
      "outputs": [
        {
          "name": "",
          "type": "bool"
        }
      ],
      "payable": false,
      "stateMutability": "view",
      "type": "function"
    },
    {
      "constant": false,
      "inputs": [
        {
          "name": "newOwner",
          "type": "address"
        }
      ],
      "name": "transferOwnership",
      "outputs": [],
      "payable": false,
      "stateMutability": "nonpayable",
      "type": "function"
    },
    {
      "constant": true,
      "inputs": [],
      "name": "peakCapacity",
      "outputs": [
        {
          "name": "",
          "type": "uint256"
        }
      ],
      "payable": false,
      "stateMutability": "view",
      "type": "function"
    },
    {
      "inputs": [],
      "payable": false,
      "stateMutability": "nonpayable",
      "type": "constructor"
    },
    {
      "anonymous": false,
      "inputs": [
        {
          "indexed": true,
          "name": "previousOwner",
          "type": "address"
        },
        {
          "indexed": true,
          "name": "newOwner",
          "type": "address"
        }
      ],
      "name": "OwnershipTransferred",
      "type": "event"
    },
    {
      "anonymous": false,
      "inputs": [
        {
          "indexed": true,
          "name": "from",
          "type": "address"
        },
        {
          "indexed": true,
          "name": "to",
          "type": "address"
        },
        {
          "indexed": true,
          "name": "tokenId",
          "type": "uint256"
        }
      ],
      "name": "Transfer",
      "type": "event"
    },
    {
      "anonymous": false,
      "inputs": [
        {
          "indexed": true,
          "name": "owner",
          "type": "address"
        },
        {
          "indexed": true,
          "name": "approved",
          "type": "address"
        },
        {
          "indexed": true,
          "name": "tokenId",
          "type": "uint256"
        }
      ],
      "name": "Approval",
      "type": "event"
    },
    {
      "anonymous": false,
      "inputs": [
        {
          "indexed": true,
          "name": "owner",
          "type": "address"
        },
        {
          "indexed": true,
          "name": "operator",
          "type": "address"
        },
        {
          "indexed": false,
          "name": "approved",
          "type": "bool"
        }
      ],
      "name": "ApprovalForAll",
      "type": "event"
    },
    {
      "constant": false,
      "inputs": [
        {
          "name": "tokenURI",
          "type": "string"
        },
        {
          "name": "tokenId",
          "type": "uint256"
        }
      ],
      "name": "mint",
      "outputs": [
        {
          "name": "",
          "type": "bool"
        }
      ],
      "payable": true,
      "stateMutability": "payable",
      "type": "function"
    },
    {
      "constant": false,
      "inputs": [],
      "name": "withdraw",
      "outputs": [],
      "payable": true,
      "stateMutability": "payable",
      "type": "function"
    }
  ],
  "bytecode": "0x60806040523480156200001157600080fd5b50604080518082018252600a81527f53656c666965204e4654000000000000000000000000000000000000000000006020808301919091528251808401909352600683527f53656c666965000000000000000000000000000000000000000000000000000090830152908181620000b17f01ffc9a700000000000000000000000000000000000000000000000000000000640100000000620001ed810204565b620000e57f80ac58cd00000000000000000000000000000000000000000000000000000000640100000000620001ed810204565b620001197f780e9d6300000000000000000000000000000000000000000000000000000000640100000000620001ed810204565b81516200012e906009906020850190620002c1565b5080516200014490600a906020840190620002c1565b50620001797f5b5e139f00000000000000000000000000000000000000000000000000000000640100000000620001ed810204565b5050505062000196620002bc640100000000026401000000009004565b600c8054600160a060020a031916600160a060020a0392831617908190556040519116906000907f8be0079c531659141344cd1fd0a4f28419497f9722a3daafe3b4186f6b6457e0908290a36000600d5562000363565b7fffffffff0000000000000000000000000000000000000000000000000000000080821614156200027f57604080517f08c379a000000000000000000000000000000000000000000000000000000000815260206004820152601c60248201527f4552433136353a20696e76616c696420696e7465726661636520696400000000604482015290519081900360640190fd5b7fffffffff00000000000000000000000000000000000000000000000000000000166000908152602081905260409020805460ff19166001179055565b335b90565b828054600181600116156101000203166002900490600052602060002090601f016020900481019282601f106200030457805160ff191683800117855562000334565b8280016001018555821562000334579182015b828111156200033457825182559160200191906001019062000317565b506200034292915062000346565b5090565b620002be91905b808211156200034257600081556001016200034d565b61259e80620003736000396000f3fe6080604052600436106101325763ffffffff7c010000000000000000000000000000000000000000000000000000000060003504166301ffc9a78114610137578063056b01ce1461019457806306fdde031461023c578063081812fc146102c6578063095ea7b31461030c57806318160ddd1461034757806323b872dd1461036e5780632f745c59146103b15780633ccfd60b146103ea57806342842e0e146103f25780634f6ccce7146104355780636352211e1461045f57806370a0823114610489578063715018a6146104bc5780638da5cb5b146104d15780638f32d59b146104e657806395d89b41146104fb578063a22cb46514610510578063b88d4fde1461054b578063c87b56dd1461061e578063e985e9c514610648578063f2fde38b14610683578063fc084916146106b6575b600080fd5b34801561014357600080fd5b506101806004803603602081101561015a57600080fd5b50357bffffffffffffffffffffffffffffffffffffffffffffffffffffffff19166106cb565b604080519115158252519081900360200190f35b610180600480360360408110156101aa57600080fd5b8101906020810181356401000000008111156101c557600080fd5b8201836020820111156101d757600080fd5b803590602001918460018302840111640100000000831117156101f957600080fd5b91908080601f01602080910402602001604051908101604052809392919081815260200183838082843760009201919091525092955050913592506106ff915050565b34801561024857600080fd5b50610251610f95565b6040805160208082528351818301528351919283929083019185019080838360005b8381101561028b578181015183820152602001610273565b50505050905090810190601f1680156102b85780820380516001836020036101000a031916815260200191505b509250505060405180910390f35b3480156102d257600080fd5b506102f0600480360360208110156102e957600080fd5b503561102c565b60408051600160a060020a039092168252519081900360200190f35b34801561031857600080fd5b506103456004803603604081101561032f57600080fd5b50600160a060020a0381351690602001356110cf565b005b34801561035357600080fd5b5061035c611267565b60408051918252519081900360200190f35b34801561037a57600080fd5b506103456004803603606081101561039157600080fd5b50600160a060020a0381358116916020810135909116906040013561126d565b3480156103bd57600080fd5b5061035c600480360360408110156103d457600080fd5b50600160a060020a038135169060200135611303565b6103456113c1565b3480156103fe57600080fd5b506103456004803603606081101561041557600080fd5b50600160a060020a0381358116916020810135909116906040013561144f565b34801561044157600080fd5b5061035c6004803603602081101561045857600080fd5b503561146b565b34801561046b57600080fd5b506102f06004803603602081101561048257600080fd5b5035611511565b34801561049557600080fd5b5061035c600480360360208110156104ac57600080fd5b5035600160a060020a03166115a6565b3480156104c857600080fd5b5061034561164f565b3480156104dd57600080fd5b506102f0611704565b3480156104f257600080fd5b50610180611713565b34801561050757600080fd5b50610251611739565b34801561051c57600080fd5b506103456004803603604081101561053357600080fd5b50600160a060020a038135169060200135151561179a565b34801561055757600080fd5b506103456004803603608081101561056e57600080fd5b600160a060020a038235811692602081013590911691604082013591908101906080810160608201356401000000008111156105a957600080fd5b8201836020820111156105bb57600080fd5b803590602001918460018302840111640100000000831117156105dd57600080fd5b91908080601f016020809104026020016040519081016040528093929190818152602001838380828437600092019190915250929550611869945050505050565b34801561062a57600080fd5b506102516004803603602081101561064157600080fd5b5035611902565b34801561065457600080fd5b506101806004803603604081101561066b57600080fd5b50600160a060020a0381358116916020013516611a28565b34801561068f57600080fd5b50610345600480360360208110156106a657600080fd5b5035600160a060020a0316611a56565b3480156106c257600080fd5b5061035c611abd565b7bffffffffffffffffffffffffffffffffffffffffffffffffffffffff191660009081526020819052604090205460ff1690565b6000818152600e602052604081205460ff16156107b2576040805160e560020a62461bcd02815260206004820152604e60248201527f4164766572746973656d656e7420736c6f7420706f736974696f6e20756e617660448201527f61696c61626c652e20506c6561736520747279206120646966666572656e742060648201527f736c6f7420706f736974696f6e21000000000000000000000000000000000000608482015290519081900360a40190fd5b600d54606411610858576040805160e560020a62461bcd02815260206004820152604e60248201527f4e6f206d6f7265206164766572746973696e6720737061636520617661696c6160448201527f626c65206f6e2074686520426c6f636b636861696e42696c6c626f6172642e2060648201527f5065616b20636170616369747921000000000000000000000000000000000000608482015290519081900360a40190fd5b346002831480610868575082600e145b806108735750826016145b8061087e5750826022145b80610889575082602a145b806108945750826036145b8061089f575082603e145b806108aa575082604a145b806108b55750826052145b806108c0575082605e145b15610980578015610941576040805160e560020a62461bcd02815260206004820152603460248201527f496e76616c6964207061796d656e742e205468697320746f6b656e206d75737460448201527f2062652069737375656420666f72204652454521000000000000000000000000606482015290519081900360840190fd5b61094b3384611ac2565b6109558385611ae3565b50506000818152600e60205260409020805460ff19166001908117909155600d805482019055610f8f565b8260001080156109915750600a8311155b15610a0e57674563918244f400008114610a09576040805160e560020a62461bcd02815260206004820152604660248201526000805160206125538339815191526044820152600080516020612533833981519152606482015260d160020a653137b0b9321702608482015290519081900360a40190fd5b610f54565b82600a108015610a1f575060148311155b15610a9757673e733628714200008114610a09576040805160e560020a62461bcd02815260206004820152604660248201526000805160206125538339815191526044820152600080516020612533833981519152606482015260d160020a653137b0b9321702608482015290519081900360a40190fd5b826014108015610aa85750601e8311155b15610b2057673782dace9d9000008114610a09576040805160e560020a62461bcd02815260206004820152604660248201526000805160206125538339815191526044820152600080516020612533833981519152606482015260d160020a653137b0b9321702608482015290519081900360a40190fd5b82601e108015610b31575060288311155b15610ba9576730927f74c9de00008114610a09576040805160e560020a62461bcd02815260206004820152604660248201526000805160206125538339815191526044820152600080516020612533833981519152606482015260d160020a653137b0b9321702608482015290519081900360a40190fd5b826028108015610bba575060328311155b15610c32576729a2241af62c00008114610a09576040805160e560020a62461bcd02815260206004820152604660248201526000805160206125538339815191526044820152600080516020612533833981519152606482015260d160020a653137b0b9321702608482015290519081900360a40190fd5b826032108015610c435750603c8311155b15610cbb576722b1c8c1227a00008114610a09576040805160e560020a62461bcd02815260206004820152604660248201526000805160206125538339815191526044820152600080516020612533833981519152606482015260d160020a653137b0b9321702608482015290519081900360a40190fd5b82603c108015610ccc575060468311155b15610d4457671bc16d674ec800008114610a09576040805160e560020a62461bcd02815260206004820152604660248201526000805160206125538339815191526044820152600080516020612533833981519152606482015260d160020a653137b0b9321702608482015290519081900360a40190fd5b826046108015610d55575060508311155b15610dcd576714d1120d7b1600008114610a09576040805160e560020a62461bcd02815260206004820152604660248201526000805160206125538339815191526044820152600080516020612533833981519152606482015260d160020a653137b0b9321702608482015290519081900360a40190fd5b826050108015610dde5750605a8311155b15610e5657670de0b6b3a76400008114610a09576040805160e560020a62461bcd02815260206004820152604660248201526000805160206125538339815191526044820152600080516020612533833981519152606482015260d160020a653137b0b9321702608482015290519081900360a40190fd5b82605a108015610e67575060648311155b15610edf576706f05b59d3b200008114610a09576040805160e560020a62461bcd02815260206004820152604660248201526000805160206125538339815191526044820152600080516020612533833981519152606482015260d160020a653137b0b9321702608482015290519081900360a40190fd5b6040805160e560020a62461bcd028152602060048201526024808201527f496e76616c6964206164766572746973656d656e7420736c6f7420706f73697460448201527f696f6e2e00000000000000000000000000000000000000000000000000000000606482015290519081900360840190fd5b610f5e3384611ac2565b610f688385611ae3565b50506000818152600e60205260409020805460ff19166001908117909155600d8054820190555b92915050565b60098054604080516020601f60026000196101006001881615020190951694909404938401819004810282018101909252828152606093909290918301828280156110215780601f10610ff657610100808354040283529160200191611021565b820191906000526020600020905b81548152906001019060200180831161100457829003601f168201915b505050505090505b90565b600061103782611b87565b15156110b3576040805160e560020a62461bcd02815260206004820152602c60248201527f4552433732313a20617070726f76656420717565727920666f72206e6f6e657860448201527f697374656e7420746f6b656e0000000000000000000000000000000000000000606482015290519081900360840190fd5b50600090815260026020526040902054600160a060020a031690565b60006110da82611511565b9050600160a060020a038381169082161415611166576040805160e560020a62461bcd02815260206004820152602160248201527f4552433732313a20617070726f76616c20746f2063757272656e74206f776e6560448201527f7200000000000000000000000000000000000000000000000000000000000000606482015290519081900360840190fd5b33600160a060020a038216148061118257506111828133611a28565b15156111fe576040805160e560020a62461bcd02815260206004820152603860248201527f4552433732313a20617070726f76652063616c6c6572206973206e6f74206f7760448201527f6e6572206e6f7220617070726f76656420666f7220616c6c0000000000000000606482015290519081900360840190fd5b600082815260026020526040808220805473ffffffffffffffffffffffffffffffffffffffff1916600160a060020a0387811691821790925591518593918516917f8c5be1e5ebec7d5bd14f71427d1e84f3dd0314c0f7b2291e5b200ac8c7c3b92591a4505050565b60075490565b6112773382611ba4565b15156112f3576040805160e560020a62461bcd02815260206004820152603160248201527f4552433732313a207472616e736665722063616c6c6572206973206e6f74206f60448201527f776e6572206e6f7220617070726f766564000000000000000000000000000000606482015290519081900360840190fd5b6112fe838383611c89565b505050565b600061130e836115a6565b821061138a576040805160e560020a62461bcd02815260206004820152602b60248201527f455243373231456e756d657261626c653a206f776e657220696e646578206f7560448201527f74206f6620626f756e6473000000000000000000000000000000000000000000606482015290519081900360840190fd5b600160a060020a03831660009081526005602052604090208054839081106113ae57fe5b9060005260206000200154905092915050565b6113c9611713565b151561141f576040805160e560020a62461bcd02815260206004820181905260248201527f4f776e61626c653a2063616c6c6572206973206e6f7420746865206f776e6572604482015290519081900360640190fd5b6040513390303180156108fc02916000818181858888f1935050505015801561144c573d6000803e3d6000fd5b50565b6112fe8383836020604051908101604052806000815250611869565b6000611475611267565b82106114f1576040805160e560020a62461bcd02815260206004820152602c60248201527f455243373231456e756d657261626c653a20676c6f62616c20696e646578206f60448201527f7574206f6620626f756e64730000000000000000000000000000000000000000606482015290519081900360840190fd5b60078054839081106114ff57fe5b90600052602060002001549050919050565b600081815260016020526040812054600160a060020a0316801515610f8f576040805160e560020a62461bcd02815260206004820152602960248201527f4552433732313a206f776e657220717565727920666f72206e6f6e657869737460448201527f656e7420746f6b656e0000000000000000000000000000000000000000000000606482015290519081900360840190fd5b6000600160a060020a038216151561162e576040805160e560020a62461bcd02815260206004820152602a60248201527f4552433732313a2062616c616e636520717565727920666f7220746865207a6560448201527f726f206164647265737300000000000000000000000000000000000000000000606482015290519081900360840190fd5b600160a060020a0382166000908152600360205260409020610f8f90611ca8565b611657611713565b15156116ad576040805160e560020a62461bcd02815260206004820181905260248201527f4f776e61626c653a2063616c6c6572206973206e6f7420746865206f776e6572604482015290519081900360640190fd5b600c54604051600091600160a060020a0316907f8be0079c531659141344cd1fd0a4f28419497f9722a3daafe3b4186f6b6457e0908390a3600c805473ffffffffffffffffffffffffffffffffffffffff19169055565b600c54600160a060020a031690565b600c54600090600160a060020a031661172a611cac565b600160a060020a031614905090565b600a8054604080516020601f60026000196101006001881615020190951694909404938401819004810282018101909252828152606093909290918301828280156110215780601f10610ff657610100808354040283529160200191611021565b600160a060020a0382163314156117fb576040805160e560020a62461bcd02815260206004820152601960248201527f4552433732313a20617070726f766520746f2063616c6c657200000000000000604482015290519081900360640190fd5b336000818152600460209081526040808320600160a060020a03871680855290835292819020805460ff1916861515908117909155815190815290519293927f17307eab39ab6107e8899845ad3d59bd9653f200f220920489ca2b5937696c31929181900390910190a35050565b61187484848461126d565b61188084848484611cb0565b15156118fc576040805160e560020a62461bcd02815260206004820152603260248201527f4552433732313a207472616e7366657220746f206e6f6e20455243373231526560448201527f63656976657220696d706c656d656e7465720000000000000000000000000000606482015290519081900360840190fd5b50505050565b606061190d82611b87565b1515611989576040805160e560020a62461bcd02815260206004820152602f60248201527f4552433732314d657461646174613a2055524920717565727920666f72206e6f60448201527f6e6578697374656e7420746f6b656e0000000000000000000000000000000000606482015290519081900360840190fd5b6000828152600b602090815260409182902080548351601f600260001961010060018616150201909316929092049182018490048402810184019094528084529091830182828015611a1c5780601f106119f157610100808354040283529160200191611a1c565b820191906000526020600020905b8154815290600101906020018083116119ff57829003601f168201915b50505050509050919050565b600160a060020a03918216600090815260046020908152604080832093909416825291909152205460ff1690565b611a5e611713565b1515611ab4576040805160e560020a62461bcd02815260206004820181905260248201527f4f776e61626c653a2063616c6c6572206973206e6f7420746865206f776e6572604482015290519081900360640190fd5b61144c81611e2c565b606481565b611acc8282611f1b565b611ad68282612061565b611adf8161209f565b5050565b611aec82611b87565b1515611b68576040805160e560020a62461bcd02815260206004820152602c60248201527f4552433732314d657461646174613a2055524920736574206f66206e6f6e657860448201527f697374656e7420746f6b656e0000000000000000000000000000000000000000606482015290519081900360840190fd5b6000828152600b6020908152604090912082516112fe9284019061247a565b600090815260016020526040902054600160a060020a0316151590565b6000611baf82611b87565b1515611c2b576040805160e560020a62461bcd02815260206004820152602c60248201527f4552433732313a206f70657261746f7220717565727920666f72206e6f6e657860448201527f697374656e7420746f6b656e0000000000000000000000000000000000000000606482015290519081900360840190fd5b6000611c3683611511565b905080600160a060020a031684600160a060020a03161480611c71575083600160a060020a0316611c668461102c565b600160a060020a0316145b80611c815750611c818185611a28565b949350505050565b611c948383836120e3565b611c9e83826122b3565b6112fe8282612061565b5490565b3390565b6000611cc484600160a060020a03166123aa565b1515611cd257506001611c81565b6040517f150b7a020000000000000000000000000000000000000000000000000000000081523360048201818152600160a060020a03888116602485015260448401879052608060648501908152865160848601528651600095928a169463150b7a029490938c938b938b939260a4019060208501908083838e5b83811015611d65578181015183820152602001611d4d565b50505050905090810190601f168015611d925780820380516001836020036101000a031916815260200191505b5095505050505050602060405180830381600087803b158015611db457600080fd5b505af1158015611dc8573d6000803e3d6000fd5b505050506040513d6020811015611dde57600080fd5b50517bffffffffffffffffffffffffffffffffffffffffffffffffffffffff19167f150b7a020000000000000000000000000000000000000000000000000000000014915050949350505050565b600160a060020a0381161515611eb2576040805160e560020a62461bcd02815260206004820152602660248201527f4f776e61626c653a206e6577206f776e657220697320746865207a65726f206160448201527f6464726573730000000000000000000000000000000000000000000000000000606482015290519081900360840190fd5b600c54604051600160a060020a038084169216907f8be0079c531659141344cd1fd0a4f28419497f9722a3daafe3b4186f6b6457e090600090a3600c805473ffffffffffffffffffffffffffffffffffffffff1916600160a060020a0392909216919091179055565b600160a060020a0382161515611f7b576040805160e560020a62461bcd02815260206004820181905260248201527f4552433732313a206d696e7420746f20746865207a65726f2061646472657373604482015290519081900360640190fd5b611f8481611b87565b15611fd9576040805160e560020a62461bcd02815260206004820152601c60248201527f4552433732313a20746f6b656e20616c7265616479206d696e74656400000000604482015290519081900360640190fd5b6000818152600160209081526040808320805473ffffffffffffffffffffffffffffffffffffffff1916600160a060020a038716908117909155835260039091529020612025906123b2565b6040518190600160a060020a038416906000907fddf252ad1be2c89b69c2b068fc378daa952ba7f163c4a11628f55a4df523b3ef908290a45050565b600160a060020a0390911660009081526005602081815260408084208054868652600684529185208290559282526001810183559183529091200155565b600780546000838152600860205260408120829055600182018355919091527fa66cc928b5edb82af9bd49922954155ab7b0942694bea4ce44661d9a8736c6880155565b82600160a060020a03166120f682611511565b600160a060020a03161461217a576040805160e560020a62461bcd02815260206004820152602960248201527f4552433732313a207472616e73666572206f6620746f6b656e2074686174206960448201527f73206e6f74206f776e0000000000000000000000000000000000000000000000606482015290519081900360840190fd5b600160a060020a03821615156121ff576040805160e560020a62461bcd028152602060048201526024808201527f4552433732313a207472616e7366657220746f20746865207a65726f2061646460448201527f7265737300000000000000000000000000000000000000000000000000000000606482015290519081900360840190fd5b612208816123bb565b600160a060020a038316600090815260036020526040902061222990612403565b600160a060020a038216600090815260036020526040902061224a906123b2565b600081815260016020526040808220805473ffffffffffffffffffffffffffffffffffffffff1916600160a060020a0386811691821790925591518493918716917fddf252ad1be2c89b69c2b068fc378daa952ba7f163c4a11628f55a4df523b3ef91a4505050565b600160a060020a0382166000908152600560205260408120546122dd90600163ffffffff61241a16565b60008381526006602052604090205490915080821461237a57600160a060020a038416600090815260056020526040812080548490811061231a57fe5b90600052602060002001549050806005600087600160a060020a0316600160a060020a031681526020019081526020016000208381548110151561235a57fe5b600091825260208083209091019290925591825260069052604090208190555b600160a060020a03841660009081526005602052604090208054906123a39060001983016124f8565b5050505050565b6000903b1190565b80546001019055565b600081815260026020526040902054600160a060020a03161561144c576000908152600260205260409020805473ffffffffffffffffffffffffffffffffffffffff19169055565b805461241690600163ffffffff61241a16565b9055565b600082821115612474576040805160e560020a62461bcd02815260206004820152601e60248201527f536166654d6174683a207375627472616374696f6e206f766572666c6f770000604482015290519081900360640190fd5b50900390565b828054600181600116156101000203166002900490600052602060002090601f016020900481019282601f106124bb57805160ff19168380011785556124e8565b828001600101855582156124e8579182015b828111156124e85782518255916020019190600101906124cd565b506124f4929150612518565b5090565b8154818355818111156112fe576000838152602090206112fe9181019083015b61102991905b808211156124f4576000815560010161251e56fe2069737375696e672066726f6d2074686520426c6f636b636861696e42696c6c496e76616c6964207061796d656e742e20506c6561736520636f6e7369646572a165627a7a723058207b573532612d7df535f59b476d03555651751ee94a34192a6b778c9da866cade0029",
  "source": "pragma solidity 0.5.0;\r\n\r\nimport \"./ERC721Full.sol\";\r\nimport \"@openzeppelin/contracts/ownership/Ownable.sol\";\r\n\r\ncontract SelfieTokenizer is ERC721Full, Ownable {\r\n    \r\n    uint256 currentSupply;\r\n    uint256 public constant peakCapacity = 100;\r\n\r\n    mapping(uint256 => bool) _tokenExists;\r\n\r\n    constructor() ERC721Full(\"Selfie NFT\", \"Selfie\") public {\r\n        currentSupply = 0;\r\n    }\r\n\r\n    function mint(string memory tokenURI, uint256 tokenId) payable public returns (bool)  {\r\n        require(!_tokenExists[tokenId], \"Advertisement slot position unavailable. Please try a different slot position!\");\r\n        require(currentSupply < peakCapacity, \"No more advertising space available on the BlockchainBillboard. Peak capacity!\");\r\n\r\n        uint256 payment = msg.value;\r\n\r\n        if (tokenId == 2 || tokenId == 14 || tokenId == 22 || tokenId == 34 || tokenId == 42 || tokenId == 54 || tokenId == 62 || tokenId == 74 || tokenId == 82 || tokenId == 94) {         // INITIAL TOKEN OFFERING\r\n            require(payment == 0, \"Invalid payment. This token must be issued for FREE!\");\r\n            _mint(msg.sender, tokenId);\r\n            _setTokenURI(tokenId, tokenURI);\r\n            _tokenExists[tokenId] = true;\r\n            currentSupply += 1;\r\n            return true;\r\n        }\r\n\r\n        if (0 < tokenId && tokenId <= 10) {                                                                                                                 // STANDARD PRICING\r\n            require(payment == 5000000000000000000, \"Invalid payment. Please consider issuing from the BlockchainBillboard.\");\r\n        } else if (10 < tokenId && tokenId <= 20) {\r\n            require(payment == 4500000000000000000, \"Invalid payment. Please consider issuing from the BlockchainBillboard.\");\r\n        } else if (20 < tokenId && tokenId <= 30) {\r\n            require(payment == 4000000000000000000, \"Invalid payment. Please consider issuing from the BlockchainBillboard.\");\r\n        } else if (30 < tokenId && tokenId <= 40) {\r\n            require(payment == 3500000000000000000, \"Invalid payment. Please consider issuing from the BlockchainBillboard.\");\r\n        } else if (40 < tokenId && tokenId <= 50) {\r\n            require(payment == 3000000000000000000, \"Invalid payment. Please consider issuing from the BlockchainBillboard.\");\r\n        } else if (50 < tokenId && tokenId <= 60) {\r\n            require(payment == 2500000000000000000, \"Invalid payment. Please consider issuing from the BlockchainBillboard.\");\r\n        } else if (60 < tokenId && tokenId <= 70) {\r\n            require(payment == 2000000000000000000, \"Invalid payment. Please consider issuing from the BlockchainBillboard.\");\r\n        } else if (70 < tokenId && tokenId <= 80) {\r\n            require(payment == 1500000000000000000, \"Invalid payment. Please consider issuing from the BlockchainBillboard.\");\r\n        } else if (80 < tokenId && tokenId <= 90) {\r\n            require(payment == 1000000000000000000, \"Invalid payment. Please consider issuing from the BlockchainBillboard.\");\r\n        } else if (90 < tokenId && tokenId <= 100) {\r\n            require(payment == 500000000000000000, \"Invalid payment. Please consider issuing from the BlockchainBillboard.\");         \r\n        } else {\r\n            revert(\"Invalid advertisement slot position.\");\r\n        }\r\n\r\n        _mint(msg.sender, tokenId);\r\n        _setTokenURI(tokenId, tokenURI);\r\n        _tokenExists[tokenId] = true;\r\n        currentSupply += 1;\r\n        return true;\r\n    }\r\n\r\n    function withdraw() payable onlyOwner public {\r\n        msg.sender.transfer(address(this).balance);\r\n    }\r\n\r\n}\r\n",
  "sourcePath": "C:/Users/kam/playground/dev/canvas2021/the_web3_project/react-ui/contracts/SelfieTokenizer.sol",
  "compiler": {
    "name": "solc",
    "version": "0.5.0+commit.1d4f565a.Emscripten.clang"
  },
  "schemaVersion": "3.4.1",
  "updatedAt": "2021-08-15T19:43:08.306Z",
  "networkType": "ethereum",
  "devdoc": {
    "methods": {
      "approve(address,uint256)": {
        "details": "Approves another address to transfer the given token ID\r The zero address indicates there is no approved address.\r There can only be one approved address per token at a given time.\r Can only be called by the token owner or an approved operator.\r",
        "params": {
          "to": "address to be approved for the given token ID\r",
          "tokenId": "uint256 ID of the token to be approved\r"
        }
      },
      "balanceOf(address)": {
        "details": "Gets the balance of the specified address.\r",
        "params": {
          "owner": "address to query the balance of\r"
        },
        "return": "uint256 representing the amount owned by the passed address\r"
      },
      "getApproved(uint256)": {
        "details": "Gets the approved address for a token ID, or zero if no address set\r Reverts if the token ID does not exist.\r",
        "params": {
          "tokenId": "uint256 ID of the token to query the approval of\r"
        },
        "return": "address currently approved for the given token ID\r"
      },
      "isApprovedForAll(address,address)": {
        "details": "Tells whether an operator is approved by a given owner.\r",
        "params": {
          "operator": "operator address which you want to query the approval of\r",
          "owner": "owner address which you want to query the approval of\r"
        },
        "return": "bool whether the given operator is approved by the given owner\r"
      },
      "isOwner()": {
        "details": "Returns true if the caller is the current owner."
      },
      "name()": {
        "details": "Gets the token name.\r",
        "return": "string representing the token name\r"
      },
      "owner()": {
        "details": "Returns the address of the current owner."
      },
      "ownerOf(uint256)": {
        "details": "Gets the owner of the specified token ID.\r",
        "params": {
          "tokenId": "uint256 ID of the token to query the owner of\r"
        },
        "return": "address currently marked as the owner of the given token ID\r"
      },
      "renounceOwnership()": {
        "details": "Leaves the contract without owner. It will not be possible to call `onlyOwner` functions anymore. Can only be called by the current owner.     * NOTE: Renouncing ownership will leave the contract without an owner, thereby removing any functionality that is only available to the owner."
      },
      "safeTransferFrom(address,address,uint256)": {
        "details": "Safely transfers the ownership of a given token ID to another address\r If the target address is a contract, it must implement `onERC721Received`,\r which is called upon a safe transfer, and return the magic value\r `bytes4(keccak256(\"onERC721Received(address,address,uint256,bytes)\"))`; otherwise,\r the transfer is reverted.\r Requires the msg.sender to be the owner, approved, or operator\r",
        "params": {
          "from": "current owner of the token\r",
          "to": "address to receive the ownership of the given token ID\r",
          "tokenId": "uint256 ID of the token to be transferred\r"
        }
      },
      "safeTransferFrom(address,address,uint256,bytes)": {
        "details": "Safely transfers the ownership of a given token ID to another address\r If the target address is a contract, it must implement `onERC721Received`,\r which is called upon a safe transfer, and return the magic value\r `bytes4(keccak256(\"onERC721Received(address,address,uint256,bytes)\"))`; otherwise,\r the transfer is reverted.\r Requires the msg.sender to be the owner, approved, or operator\r",
        "params": {
          "_data": "bytes data to send along with a safe transfer check\r",
          "from": "current owner of the token\r",
          "to": "address to receive the ownership of the given token ID\r",
          "tokenId": "uint256 ID of the token to be transferred\r"
        }
      },
      "setApprovalForAll(address,bool)": {
        "details": "Sets or unsets the approval of a given operator\r An operator is allowed to transfer all tokens of the sender on their behalf.\r",
        "params": {
          "approved": "representing the status of the approval to be set\r",
          "to": "operator address to set the approval\r"
        }
      },
      "supportsInterface(bytes4)": {
        "details": "See `IERC165.supportsInterface`.\r      * Time complexity O(1), guaranteed to always use less than 30 000 gas.\r"
      },
      "symbol()": {
        "details": "Gets the token symbol.\r",
        "return": "string representing the token symbol\r"
      },
      "tokenByIndex(uint256)": {
        "details": "Gets the token ID at a given index of all the tokens in this contract\r Reverts if the index is greater or equal to the total number of tokens.\r",
        "params": {
          "index": "uint256 representing the index to be accessed of the tokens list\r"
        },
        "return": "uint256 token ID at the given index of the tokens list\r"
      },
      "tokenOfOwnerByIndex(address,uint256)": {
        "details": "Gets the token ID at a given index of the tokens list of the requested owner.\r",
        "params": {
          "index": "uint256 representing the index to be accessed of the requested tokens list\r",
          "owner": "address owning the tokens list to be accessed\r"
        },
        "return": "uint256 token ID at the given index of the tokens list owned by the requested address\r"
      },
      "tokenURI(uint256)": {
        "details": "Returns an URI for a given token ID.\r Throws if the token ID does not exist. May return an empty string.\r",
        "params": {
          "tokenId": "uint256 ID of the token to query\r"
        }
      },
      "totalSupply()": {
        "details": "Gets the total amount of tokens stored by the contract.\r",
        "return": "uint256 representing the total amount of tokens\r"
      },
      "transferFrom(address,address,uint256)": {
        "details": "Transfers the ownership of a given token ID to another address.\r Usage of this method is discouraged, use `safeTransferFrom` whenever possible.\r Requires the msg.sender to be the owner, approved, or operator.\r",
        "params": {
          "from": "current owner of the token\r",
          "to": "address to receive the ownership of the given token ID\r",
          "tokenId": "uint256 ID of the token to be transferred\r"
        }
      },
      "transferOwnership(address)": {
        "details": "Transfers ownership of the contract to a new account (`newOwner`). Can only be called by the current owner."
      }
    }
  },
  "userdoc": {
    "methods": {}
  }
}